:020000040800F2
:1000000000000120612800088F13000891130008E8
:1000100093130008951300089713000800000000D0
:10002000000000000000000000000000991300081C
:100030009B130008000000009D130008A113000896
:10004000B1280008B1280008B1280008B12800082C
:10005000B1280008B1280008C1120008B128000822
:10006000B1280008B1280008B1280008B12800080C
:10007000B1280008B1280008B1280008B1280008FC
:10008000B1280008B1280008B1280008B1280008EC
:10009000B1280008B1280008B1280008B1280008DC
:1000A000B1280008B1280008B1280008B1280008CC
:1000B000B1280008B1280008B1280008B1280008BC
:1000C000B1280008B1280008B1280008B1280008AC
:1000D000B1280008B1280008B1280008B12800089C
:1000E000B1280008B1280008B1280008B12800088C
:1000F000B1280008B1280008B1280008B12800087C
:10010000B12800080000000000000000B12800082D
:10011000B1280008B1280008B1280008B12800085B
:10012000B1280008B1280008B1280008B12800084B
:10013000B1280008B12800080000000000000000FD
:10014000B1280008B1280008B1280008000000000C
:10015000000000000000000000000000000000009F
:10016000B1280008B1280008B1280008B12800080B
:10017000B1280008B1280008B1280008B1280008FB
:10018000B1280008B12800080000000000000000AD
:04019000B12800088A
:1001C000044B05481B1A062B02D9044B03B11847F0
:1001D000704700BF7700002074000020000000007E
:1001E00005490648091A891001EBD171491002D05E
:1001F000034B03B1184770477400002074000020BF
:100200000000000010B5064C237843B9FFF7D8FF73
:10021000044B13B10448AFF300800123237010BDD9
:100220007400002000000000B428000808B5084B46
:100230001BB108490848AFF300800848036813B9A8
:10024000BDE80840CCE7064B002BF9D09847F7E70C
:100250000000000078000020B4280008740000208E
:100260000000000070B50F4E0F4D761BB61018BF82
:10027000002405D0013455F8043B9847A642F9D133
:100280000A4E0B4D761B02F015FBB61018BF00246A
:1002900006D0013455F8043B9847A642F9D170BD09
:1002A00070BD00BF7029000870290008742900087B
:1002B0007029000870B4860746D0541E002A41D029
:1002C000CAB2034602E014F1FF343BD303F8012B1A
:1002D0009D07F8D1032C2ED9CDB245EA05250F2C68
:1002E00045EA054519D903F110022646103E0F2EA6
:1002F00042F8105C42F80C5C42F8085C42F8045C7E
:1003000002F11002F2D8A4F1100222F00F0204F060
:100310000F041032032C13440DD91E462246043A12
:10032000032A46F8045BFAD8221F22F003020432A3
:10033000134404F003042CB1C9B21C4403F8011B9C
:100340009C42FBD170BC704714460346C2E700BF15
:100350000B4B1B6810B504460BB19A694AB1132CBC
:100360000CD8084850F83430013307D000EBC400F3
:1003700010BD184600F01CFC132CF2D9002010BD53
:10038000000000209000002070B500F013FB132443
:100390000546002620463146ABBE04464FF0FF30EE
:1003A0002C6070BD2DE9F04385B0DFF88880CDF872
:1003B00004800327002303970125029301AE2846FA
:1003C0003146ABBE81461A4CCDF804800423039716
:1003D000C4F8A090029328463146ABBE814608235C
:1003E000CDF80480C4F8A4900397029328463146C0
:1003F000ABBE0546D4F8A400C4F8A8506B1C04BFDB
:10040000C4F8A800054600234FF0FF3244F833201B
:100410000133142BFAD1D4F8A020A0600023256169
:1004200084E80C00E360636105B0BDE8F08300BFC1
:10043000900000206C29000830B585B0062401909A
:100440000291039201AD20462946ABBE0446631CCF
:1004500002D0204605B030BDFFF796FF05B030BD95
:10046000F0B585B00C461646FFF772FFC8B10368B9
:100470000193029405460396062401AF20463946AF
:10048000ABBE0446621C204605D06B68301A03449C
:100490006B6005B0F0BDFFF777FF431CF5D105B0E9
:1004A000F0BD00F087FA092303604FF0FF30F0E75A
:1004B000F0B583B00D461446FFF74AFF00283AD046
:1004C000022C25D8012C06461FD0022C10D06F46D6
:1004D00033680A248DE8280020463946ABBE04461E
:1004E000631C1CD0002C23DB7560284603B0F0BDD4
:1004F00002AF036847F8083D0C2420463946ABBEDE
:100500000446611C0FD02544E2E740682D18DED573
:1005100000F050FA162303604FF0FF35E5E7FFF7D0
:1005200033FF0446DEE7FFF72FFF421C0446EAD103
:100530004FF0FF35D9E700F03DFA092303604FF093
:10054000FF35D2E7FFF7B4BF30B585B00524019081
:100550000291039201AD20462946ABBE0446631CBE
:1005600002D0204605B030BDFFF70EFF05B030BD0C
:10057000F0B585B00C461646FFF7EAFE50B30368A7
:100580000193029405460396052401AF204639469F
:10059000ABBE0446631C16D0002C18DB6A68301B07
:1005A0000244A6426A6001D005B0F0BD00F002FA34
:1005B00013250646002428462146ABBE05462046A4
:1005C000356005B0F0BDFFF7DFFE0446E4E74FF00D
:1005D000FF30E9E700F0EEF9092303604FF0FF3048
:1005E000E2E700BF30B583B002AD022445F8040D48
:1005F00020462946ABBE0446631C02D0204603B009
:1006000030BDFFF7C1FE03B030BD00BF70B582B092
:100610000446FFF79DFE10B3013C012C064611D99C
:1006200002AD336845F8043D022420462946ABBE9E
:100630000446631C20460FD010B94FF0FF333360DF
:1006400002B070BD094B9A681B699A42E8D14FF01D
:10065000FF3303600020F3E7FFF796FEECE700F0BE
:10066000A9F9092303604FF0FF30E9E7900000206B
:10067000012070470F4AD2F8AC3010B5B3B118441E
:10068000694688420AD80C490C4C0968A14201D03D
:10069000884203D8C2F8AC00184610BD00F08AF9B1
:1006A0000C2303604FF0FF33184610BD044BC2F813
:1006B000AC30E4E79000002064000020ADDEFECA0C
:1006C000D801002070B50D46FFF742FEB8B16B6847
:1006D0004FF4806243F4005306466B60EA620C24D8
:1006E00020463146ABBE0446621C204602D028613B
:1006F000002070BDFFF748FE431CF8D1F9E700F079
:1007000059F9092303604FF0FF3070BD38B53C2222
:100710000C46054608460021FFF7CCFD2146284639
:10072000BDE83840FFF7CEBF38B53C2205460C4641
:1007300008460021FFF7BEFD2846002100F012F810
:10074000431C05460CD0636843F4014363602146B3
:10075000FFF7B8FF04462846FFF758FF204638BD8C
:100760000446FBE72DE9F047334E90B082468846B9
:10077000002456F834506B1C4FEAC4070CD00134E7
:10078000142CF6D100F016F94FF0FF341823036053
:10079000204610B0BDE8F08708F42063B3F5206F61
:1007A0000DF104093BD0C8F3004518F0020F40F2E8
:1007B000016318BF45F0020518EA030F18BF45F0A2
:1007C000040518F0080F18BF25F00405504618BF9F
:1007D00045F00805CDF804A000F012FB0295039047
:1007E000012528464946ABBE0546002D08DB3744A7
:1007F000002346F834507B60204610B0BDE8F087F7
:1008000000F0D8F813240646002720463946ABBE30
:10081000044634602C46204610B0BDE8F0874946B7
:100820005046FFF781FF0130BDD000F0C3F811231F
:100830002C460360E0E700BF900000200EB400B536
:100840000199FFF78FFF5DF804EB03B0704700BF1D
:1008500008B500F0AFF8582303604FF0FF3008BD33
:10086000F0B583B00E24009000F0CAFA01906D46F6
:1008700020462946ABBE0446631C03D00024204614
:1008800003B0F0BD00F096F8132506460027284671
:100890003946ABBE05462046356003B0F0BD00BF0B
:1008A000F0B50C4640B105461126002730463946C2
:1008B000ABBE064685E8C00014B100232360636028
:1008C0000020F0BD30B51024002520462946ABBEDF
:1008D0000446204630BD00BF70B5044610250026F2
:1008E00028463146ABBE05461CB184E86000A660D0
:1008F000E660284670BD00BF70B5FFF729FD0546CC
:1009000090B1092420462946ABBE0446012C09D0EB
:1009100000F050F813250646002428462146ABBEB9
:1009200005463560204670BD00F044F809222C468B
:100930000260F7E7E8B130B583B01224009000F010
:100940005FFA01906D4620462946ABBE0446631C03
:100950000BD0FF2C204606D82CB14000C0F3072254
:1009600001D0A242F9D103B030BDFFF70DFD04461E
:10097000EFE70120704700BF30B585B00C4600900E
:1009800000F03EFA01902046029400F039FA0F245C
:1009900003906D4620462946ABBE0446631C05D035
:1009A000201C18BF0120404205B030BDFFF7ECFC11
:1009B0000446F5E7014B1868704700BF00000020AF
:1009C00000207047014900F039B900BF55100008F8
:1009D0000020704770B54A1E682505FB02F50E46DB
:1009E00005F1740100F054F9044640B100210C30C7
:1009F000666005F168022160A060FFF75BFC20469D
:100A000070BD00BF204B70B51D68AB6906465BB377
:100A100048356B68AC68013B05D521E0013B5A1CA9
:100A200004F168041CD0B4F90C20002AF6D100258A
:100A30004FF6FF720123E281A38165662560A56000
:100A4000656025616561A5612946082204F15C00A5
:100A5000FFF730FC6563A563A564E564204670BDBF
:100A6000286828B10546D4E7284600F00FF8CFE7FC
:100A700004213046FFF7AEFF28600028F2D10C2396
:100A800004463360EAE700BFCC2800083D4B3E49EE
:100A90001A682DE9F04F90424FF000038364C3645D
:100AA000036508BF012383B008BF836181620746E5
:100AB000FFF7A8FF78603846FFF7A4FFB860384614
:100AC000FFF7A0FF7D68F86000240423AB812C6051
:100AD0006C60AC606C66EC812C616C61AC61214631
:100AE00005F15C000822FFF7E5FBBE68DFF89CB06B
:100AF000DFF89CA0DFF89C90DFF89C80C5F824B05C
:100B000001230922C5F828A0C5F82C90C5F830802B
:100B10002D622146F381B28134607460B4607466E2
:100B200034617461B46106F15C0008220193FFF73F
:100B3000C1FBFD68366212200222C6F824B0C6F856
:100B400028A0C6F82C90C6F830802146A881EA81FA
:100B50002C606C60AC606C662C616C61AC6105F102
:100B60005C000822FFF7A6FB019B2D62C5F824B0AC
:100B7000C5F828A0C5F82C90C5F83080BB6103B03B
:100B8000BDE8F08FCC280008C5090008710D0008E9
:100B9000990D0008D50D0008F50D0008024B03491A
:100BA000186800F04BB800BFCC28000855100008AA
:100BB000836903B96AE77047704700BF704700BF99
:100BC000704700BF704700BF024B0349186800F030
:100BD0000FB800BF00000020D1090008024B0349F4
:100BE000186800F005B800BF00000020C109000827
:100BF0002DE9F04110F148071BD0884600267D689A
:100C0000BC68013D0FD4A389012B05F1FF3506D93E
:100C1000B4F90E300133204601D0C04706436B1CA7
:100C200004F16804EFD13F68002FE8D13046BDE8F9
:100C3000F0813E463046BDE8F08100BF2DE9F84323
:100C400010F148071FD0884606464FF000097D681E
:100C5000BC68013D11D4A389012B05F1FF3508D9EA
:100C6000B4F90E3001332146304602D0C04749EA7C
:100C700000096B1C04F16804EDD13F68002FE6D138
:100C80004846BDE8F883B9464846BDE8F88300BF4A
:100C900070B5CC1C24F0030408340C2C38BF0C2491
:100CA000002C06463BDBA14239D8274D296851B1BB
:100CB0000A68121B04D436E01A68121B1AD51946AA
:100CC0004B68002BF8D16968002937D0214630469F
:100CD00000F03CF8431C22D0C31C23F00305A842BB
:100CE00005D0291A304600F031F8013017D02C60B9
:100CF0002B4604E00B2A0DD91A6013441C6003F143
:100D00000B0020F007001A1D821A02D051429950A0
:100D100070BD70BD8B420ED05A684A60EFE70C235D
:100D20003360002070BD0B2A03D84A680B462A6046
:100D3000E5E70B46E0E70A460B46F8E7304600F0E9
:100D400005F86860C2E700BF4001002038B5074CD5
:100D50000023054608462360FFF78CFC431C00D0A7
:100D600038BD2368002BFBD02B6038BDD401002098
:100D700010B50C46B1F90E1000F00EFA002803DB96
:100D8000636D0344636510BDA38923F48053A3817D
:100D900010BD00BF002070472DE9F0411646B1F9A3
:100DA0000C201F46D3050C46054607D5002202231A
:100DB000B1F90E1000F092F9B4F90C20B4F90E104C
:100DC00022F48052A2813B4632462846BDE8F041DB
:100DD00000F084B810B50C46B1F90E1000F07EF9A1
:100DE000A389421C0EBF23F4805343F480536065F3
:100DF000A38110BDB1F90E1000F086B8000000000C
:100E000090F800F06DE9024520F007016FF0000C4A
:100E100010F0070491F820F040F049804FF00004F2
:100E20006FF00700D1E9002391F840F000F10800CD
:100E300082FA4CF2A4FA8CF283FA4CF3A2FA8CF305
:100E40004BBBD1E9022382FA4CF200F10800A4FA6C
:100E50008CF283FA4CF3A2FA8CF3E3B9D1E90423C0
:100E600082FA4CF200F10800A4FA8CF283FA4CF3F7
:100E7000A2FA8CF37BB9D1E9062301F1200182FAB1
:100E80004CF200F10800A4FA8CF283FA4CF3A2FAB7
:100E90008CF3002BC6D0002A04BF04301A4612BAC5
:100EA000B2FA82F2FDE8024500EBD2007047D1E9C8
:100EB000002304F00305C4F100004FEAC50514F057
:100EC000040F91F840F00CFA05F562EA05021CBF28
:100ED00063EA050362464FF00004A9E770B50D46CA
:100EE000084C114606461A46284600232360FFF7A1
:100EF0003FFB431C00D070BD2368002BFBD0336048
:100F000070BD00BFD401002038B5074C0023054652
:100F100008462360FFF77AFB431C00D038BD2368E6
:100F2000002BFBD02B6038BDD40100208B891A0721
:100F30002DE9F0410D46804633D44A68002A67DD2A
:100F4000EC6A002C45D00022D8F80060C8F80020D8
:100F500013F4805260D06A6D5F0705D569686B6BCA
:100F6000521A0BB12B6CD21A0023296A4046A047B3
:100F7000441C39D0AB892A692A60DB044FF0000297
:100F80006A6043D4696BC8F8006011B305F144038B
:100F9000994202D0404600F0B7F800206863BDE8EF
:100FA000F0810E69AEB10C680E6098070CBF4B69FA
:100FB0000023A41B8B600AE023463246AF6A296AED
:100FC0004046B8470028A4EB0004064404DD002C8A
:100FD000F2DC0020BDE8F081AB8943F04003AB8137
:100FE0004FF0FF30BDE8F081D8F800201D2AF3D87B
:100FF000174BD340DB4313F00103EDD1A9892C69D2
:101000006B60C9042C60BDD5002ABBD16865B9E707
:101010000A6C002A94DCDCE70123296A4046A047D9
:10102000431C024602D0AB89EC6A95E7D8F8003041
:10103000002BF8D01D2B01D0162B02D1C8F8006070
:10104000C7E7AB8943F04003AB81BDE8F08100BF47
:10105000010040200B6933B310B5044682B008B1DB
:101060008369ABB1114B994219D0114B994218D0F9
:10107000104B994208BFE168B1F90C3013B9002058
:1010800002B010BD204602B0BDE81040FFF74EBFD1
:101090000191FFF78DFD0199044B9942E5D16168FB
:1010A000EAE7A168E8E70020704700BF10290008C0
:1010B000F0280008D028000820B1054B0146186828
:1010C000FFF7C8BF034B04491868FFF7B7BD00BF5F
:1010D00000000020CC2800085510000870B50D460F
:1010E000084C114606461A46284600232360FFF79F
:1010F00029FA431C00D070BD2368002BFBD033605D
:1011000070BD00BFD401002091B151F8043C0439F6
:10111000002BB8BFC9181F4B1A68FAB18A4230B405
:101120000AD908680C18A24226D04A60196030BC5F
:1011300070478B4203D81A465368002BF9D11468C4
:1011400015198D420DD006D808680C189C4219D08C
:101150004B605160EBE70C230360E8E74A601960DD
:10116000704709680C44111999421460DFD10ACB09
:101170000C4453601460DAE7146852684A602044F3
:101180000860D3E71C685B684B60204408605160CE
:10119000CDE700BF4001002070B50D46084C114658
:1011A00006461A46284600232360FFF759F9431CD8
:1011B00000D070BD2368002BFBD0336070BD00BF32
:1011C000D401002010B58AB0002405940694079439
:1011D000089409941B4B5A6942F400225A615A69D7
:1011E00002F400220192019A5A6942F480025A6183
:1011F0005A6902F480020292029A5A6942F4003259
:101200005A615A6902F400320392039A5A6942F40D
:1012100080225A615B6903F480230493049B224675
:1012200020214FF0904001F0ADFA202305930123D7
:1012300006930794089405A94FF0904001F0C8F96F
:101240000AB010BD0010024008B50948094B036000
:101250004FF41643436000238360C36003610C2294
:1012600042618361C3610362436200F034FB08BDE5
:101270004C010020004400404FF09042136823F4DA
:10128000406343F480631360536823F0200353608A
:1012900070470000094B1A6822F040621A60DA6851
:1012A00022F0406242F08062DA601B6913F4005F52
:1012B00001D1002070474FF0FF3070470008004810
:1012C000044A536943F400535361034A13680133DA
:1012D00013607047000401404801002030B5A7B0FA
:1012E000282200211CA8FEF7E5FF0024179418947B
:1012F00019941A941B945822214601A8FEF7DAFF8C
:1013000002251C9501231F931023209322954FF44F
:10131000004323934FF4E01324931CA800F06CFBCC
:101320000F231793189519944FF480631A931B9405
:10133000294617A800F0C4FE0195049401A800F006
:10134000C3FF27B030BD08B500F01EFBFFF7C6FF96
:10135000FFF738FFFFF778FFFFF724F8FFF78CFF60
:10136000FFF798FF0028FBD14FF09044636943F0EA
:10137000200363614FF47A7000F02AFB636923F065
:10138000200363614FF4967000F022FBE8E770479A
:10139000FEE7FEE7FEE7FEE7704770477047000094
:1013A00008B5034A13680133136000F0FFFA08BD63
:1013B000CC01002082B00A4B9A6942F001029A6186
:1013C0009A6902F001020092009ADA6942F08052B2
:1013D000DA61DB6903F080530193019B02B070472F
:1013E0000010024000B589B00023039304930593D5
:1013F000069307930268134B9A4202D009B05DF836
:1014000004FB03F5E633DA6942F40032DA61DA69A3
:1014100002F400320192019A5A6942F400325A6190
:101420005B6903F400330293029B0C2303930223B2
:1014300004930723079303A94FF0904001F0C8F8E5
:10144000DCE700BF0044004010B504468368026931
:10145000134342691343C269134301680868A14AF0
:10146000024013430B602268536823F44053E16841
:101470000B435360A369226A134321688A6822F4EC
:10148000306213438B602368974A93421FD0974A78
:1014900093422ED0964A934244D0964A93425AD0D1
:1014A000954A934270D01023E269B2F5004F00F0E4
:1014B0008680082B00F20F81DFE813F0D000E500F2
:1014C000EF000D01FA000D010D010D0104018B4B20
:1014D0001B6B03F00303032B09D8DFE803F00204BE
:1014E000066E0123E0E70423DEE70823DCE7102390
:1014F000DAE7824B1B6B03F44033B3F5803F0BD02C
:1015000007D9B3F5003F09D0B3F5403F08D1022316
:10151000CAE72BB90023C7E70423C5E70823C3E7BD
:101520001023C1E7754B1B6B03F44023B3F5802FE9
:101530000BD007D9B3F5002F09D0B3F5402F08D150
:101540000223B1E72BB90023AEE70423ACE708235D
:10155000AAE71023A8E7694B1B6B03F44013B3F50C
:10156000801F0BD007D9B3F5001F09D0B3F5401F7A
:1015700008D1022398E72BB9002395E7042393E7CA
:10158000082391E710238FE75C4B1B6B03F44003A8
:10159000B3F5800F0BD007D9B3F5000F09D0B3F521
:1015A000400F08D102237FE72BB900237CE70423F7
:1015B0007AE7082378E7102376E7022374E7082BFD
:1015C00049D8DFE803F0051E2948344848483F0061
:1015D00000F04EFE6268530803EB4003B3FBF2F3E6
:1015E0009BB20020A3F110014FF6EF72914275D823
:1015F0009AB222F00F02C3F3420313432268D3606E
:101600003DE000F04BFE6268530803EB4003B3FB80
:10161000F2F39BB20020E5E76268530803F5740318
:1016200003F51053B3FBF2F39BB20020DAE700F0AE
:101630000FFD6268530803EB4003B3FBF2F39BB268
:101640000020CFE76268530803F58033B3FBF2F361
:101650009BB20020C6E701200023C3E700F008FE8C
:10166000626800EB5203B3FBF2F39BB20020A3F1DC
:1016700010014FF6EF72914232D82268D3600023F6
:101680002366636610BD00F009FE626800EB52033A
:10169000B3FBF2F39BB20020E9E76268530803F55D
:1016A000F40303F59053B3FBF2F39BB20020DEE7A3
:1016B00000F0CEFC626800EB5203B3FBF2F39BB286
:1016C0000020D4E76268530803F50043B3FBF2F34C
:1016D0009BB20020CBE701200023C8E70120CEE722
:1016E0000120CCE7F369FFEF0038014000440040DF
:1016F00000480040004C00400050004000100240F4
:10170000436A13F0010F06D00268536823F40033D4
:10171000816A0B435360436A13F0020F06D00268DC
:10172000536823F48033C16A0B435360436A13F058
:10173000040F06D00268536823F48023016B0B4327
:101740005360436A13F0080F06D00268536823F40D
:101750000043416B0B435360436A13F0100F06D0F4
:101760000268936823F48053816B0B439360436A50
:1017700013F0200F06D00268936823F40053C16B66
:101780000B439360436A13F0400F0AD0026853681A
:1017900023F48013016C0B435360036CB3F5801F7B
:1017A0000BD0436A13F0800F06D00268536823F40D
:1017B0000023816C0B43536070470268536823F425
:1017C000C003416C0B435360EBE72DE9F041044645
:1017D0000F4616469846069D2368DB6937EA0303E1
:1017E0000CBF01230023B3423CD1B5F1FF3FF3D03E
:1017F00000F0E8F8A0EB0800854220D3FDB1236893
:101800001A6812F0040FE7D0DA6912F4006FE3D01F
:101810004FF400621A622268136823F4D0731360D5
:101820002268936823F00103936020236367A36712
:10183000E367002384F870300320BDE8F08122685C
:10184000136823F4D07313602268936823F00103B4
:10185000936020236367A367002384F8703003201C
:10186000BDE8F0810020BDE8F08130B583B00446CA
:101870000023C36700F0A6F8054623681B6813F031
:10188000080F0CD123681B6813F0040F15D1202317
:101890006367A367002084F8700003B030BD6FF069
:1018A0007E430093034600224FF400112046FFF7C9
:1018B0008CFF0028E6D00320EFE76FF07E43009313
:1018C0002B4600224FF480012046FFF77EFF0028C0
:1018D000DDD00320E1E768B310B50446436F03B3DE
:1018E000242363672268136823F0010313602046F2
:1018F000FFF7AAFD01281FD0636ABBB922685368AD
:1019000023F4904353602268936823F02A03936082
:101910002268136843F0010313602046FFF7A5FF18
:1019200010BD80F87030FFF75DFDD9E72046FFF766
:10193000E7FEE3E70120704710BD000010B5044644
:101940000E4B18784FF47A73B3FBF0F30C4A10681F
:10195000B0FBF3F000F060FF68B90F2C01D9012053
:1019600010BD002221464FF0FF3000F023FF054B51
:101970001C60002010BD012010BD00BF68000020C9
:10198000700000206C00002008B5074A136843F07F
:1019900010031360032000F0FBFE0020FFF7CEFFD2
:1019A000FFF708FD002008BD00200240034A11682F
:1019B000034B1B780B441360704700BFD00100201D
:1019C00068000020014B1868704700BFD00100205C
:1019D00038B50446FFF7F6FF0546B4F1FF3F02D0E5
:1019E000044B1B781C44FFF7EDFF401B8442FAD8E0
:1019F00038BD00BF68000020002800F0178370B5D4
:101A000082B00446036813F0010F5ED0B34B5B68ED
:101A100003F00C03042B41D0B04B5B6803F00C03C4
:101A2000082B34D06368B3F5803F00F08980002B29
:101A300040F08C8003F1804303F504331A6822F4EC
:101A400080321A601A6822F480221A606368002BC0
:101A500000F09680FFF7B6FF05464FF4003393FA87
:101A6000A3F39E4B19684FF4003393FAA3F3B3FA30
:101A700083F303F01F03012202FA03F3194224D176
:101A8000FFF7A0FF401B6428E7D90320D7E2934B60
:101A90005B6803F4C033B3F5803FC3D14FF4003328
:101AA00093FAA3F38D4B19684FF4003393FAA3F321
:101AB000B3FA83F303F01F03012202FA03F319427E
:101AC00003D06368002B00F0B382236813F0020F89
:101AD00000F09E80814B5B6813F00C0F74D07F4B3D
:101AE0005B6803F00C03082B67D0E368002B00F061
:101AF000CD80012292FAA2F3B3FA83F303F1845367
:101B000003F584139B001A60FFF75CFF0546022370
:101B100093FAA3F3714B1968022393FAA3F3B3FA70
:101B200083F303F01F03012202FA03F3194240F08A
:101B30009E80FFF747FF401B0228E8D903207EE282
:101B4000664A136843F4803313607FE7B3F5A02F30
:101B500009D0624B1A6822F480321A601A6822F4A3
:101B600080221A6072E703F18043A3F53C331A68C0
:101B700042F480221A601A6842F480321A6065E7E3
:101B8000FFF720FF05464FF4003393FAA3F3534BBE
:101B900019684FF4003393FAA3F3B3FA83F303F015
:101BA0001F03012202FA03F319428ED0FFF70AFF46
:101BB000401B6428E7D9032041E2484B5B6803F4EB
:101BC000C033B3F5004F90D1022393FAA3F3434BF4
:101BD0001968022393FAA3F3B3FA83F303F01F0304
:101BE000012202FA03F3194204D0E368934201D0C0
:101BF000012024E23948036823F0F8032169F82220
:101C000092FAA2F2B2FA82F201FA02F213430360EC
:101C1000236813F0080F00F08D806369002B61D0FA
:101C2000012191FAA1F2B2FA82F22D4B13449B00EA
:101C30001960FFF7C7FE0546022393FAA3F293FA51
:101C4000A3F293FAA3F2254A516A93FAA3F3B3FAE3
:101C500083F303F01F03012202FA03F3194269D14F
:101C6000FFF7B0FE401B0228E6D90320E7E11B483E
:101C7000036823F0F8032169F82292FAA2F2B2FA7B
:101C800082F201FA02F213430360C1E7012393FADF
:101C9000A3F3B3FA83F303F1845303F584139B0096
:101CA00000221A60FFF78EFE0546022393FAA3F383
:101CB0000A4B1968022393FAA3F3B3FA83F303F0F0
:101CC0001F03012202FA03F31942A1D0FFF77AFEA3
:101CD000401B0228E9D90320B1E100BF00100240F7
:101CE00020819010012292FAA2F2B2FA82F2BF4B46
:101CF00013449B0000221A60FFF764FE054602238E
:101D000093FAA3F293FAA3F293FAA3F2B84A516AB0
:101D100093FAA3F3B3FA83F303F01F03012202FA49
:101D200003F3194206D0FFF74DFE401B0228E6D907
:101D3000032084E1236813F0040F00F0B380AC4B60
:101D4000DB6913F0805F0BD1A94BDA6942F0805256
:101D5000DA61DB6903F080530193019B012500E008
:101D60000025A44B1B6813F4807F16D0A368012BB9
:101D700027D063BB03F1804303F504331A6A22F0D2
:101D800001021A621A6A22F004021A62A368002B86
:101D90005BD0FFF717FE064645E0964A136843F40A
:101DA00080731360FFF70EFE0646924B1B6813F418
:101DB000807FDBD1FFF706FE801B6428F5D9032066
:101DC0003DE18B4A136A43F001031362DEE7052B02
:101DD00009D0874B1A6A22F001021A621A6A22F0AD
:101DE00004021A62D2E7824B1A6A42F004021A62B3
:101DF0001A6A42F001021A62C8E77D4B196A02238F
:101E000093FAA3F3B3FA83F303F01F03012202FA58
:101E100003F3194245D1FFF7D5FD801B41F288330A
:101E2000984200F20781022393FAA3F293FAA3F3F4
:101E3000B3FA83F35B0943F00203022BDDD00223E4
:101E400093FAA3F36A4B596AD9E7FFF7BBFD06463D
:101E500015E0674B196A022393FAA3F3B3FA83F3ED
:101E600003F01F03012202FA03F3194219D0FFF70E
:101E7000A9FD801B41F28833984200F2DD800223E5
:101E800093FAA3F293FAA3F3B3FA83F35B0943F053
:101E90000203022BDDD0022393FAA3F3544B596AB9
:101EA000D9E7B5BBA369002B00F0C880504A52683F
:101EB00002F00C02082A00F09F80022B2FD04FF076
:101EC000807393FAA3F3B3FA83F303F1845303F516
:101ED00084139B0000221A60FFF774FD04464FF044
:101EE000007393FAA3F3424B19684FF0007393FA0F
:101EF000A3F3B3FA83F303F01F03012202FA03F3FF
:101F0000194271D0FFF75EFD001B0228E7D90320BC
:101F100095E0374AD36923F08053D361C2E74FF08D
:101F2000807393FAA3F3B3FA83F303F1845303F5B5
:101F300084139B0000221A60FFF744FD05464FF012
:101F4000007393FAA3F32A4B19684FF0007393FAC6
:101F5000A3F3B3FA83F303F01F03012202FA03F39E
:101F6000194206D0FFF72EFD401B0228E7D90320B7
:101F700065E01F4AD36A23F00F03616A0B43D36203
:101F8000536823F47613216AE06901430B435360DD
:101F90004FF0807393FAA3F3B3FA83F303F18453FE
:101FA00003F584139B0001221A60FFF70BFD044622
:101FB0004FF0007393FAA3F30D4B19684FF00073C1
:101FC00093FAA3F3B3FA83F303F01F03012202FA97
:101FD00003F3194206D1FFF7F5FC001B0228E7D9ED
:101FE00003202CE000202AE0002028E0208190102F
:101FF0000010024000700040012B22D0134A5368A9
:10200000D06A03F4C031E269914201D0012016E0A8
:1020100003F47013226A934201D001200FE000F014
:102020000F00636A98420ED0012008E0012070473B
:10203000012004E0032002E0032000E0002002B0C1
:1020400070BD0120FBE70020F9E700BF001002404F
:10205000174B5B6803F00C02082A26D103F47011B9
:102060004FF4701292FAA2F2B2FA82F221FA02F25C
:102070001049885C0E4AD26A02F00F020F2191FAD1
:10208000A1F1B1FA81F1CA400B498A5C13F4803F97
:1020900005D10A4BB3FBF2F303FB00F07047074B8B
:1020A000B3FBF2F303FB00F070470448704700BF36
:1020B00000100240302900084029000800127A0070
:1020C000002800F0C18070B50446614B1B6803F026
:1020D00007038B420CD25E4A136823F007030B43BD
:1020E0001360136803F00703994201D0012070BD0B
:1020F000236813F0020F06D0564A536823F0F0030A
:10210000A068034353600D46236813F0010F5AD0B3
:102110006368012B2DD0022B40D0022292FAA2F24A
:102120004C4A1068022292FAA2F2B2FA82F202F04B
:102130001F02012101FA02F2104200F08780454996
:102140004A6822F0030213434B60FFF73BFC06464C
:10215000404B5B6803F00C036268B3EB820F32D034
:10216000FFF730FC801B41F288339842F0D90320FE
:1021700070BD4FF4003292FAA2F2364A10684FF462
:10218000003292FAA2F2B2FA82F202F01F020121A8
:1021900001FA02F21042D2D1012070BD4FF000725C
:1021A00092FAA2F22B4A10684FF0007292FAA2F251
:1021B000B2FA82F202F01F02012101FA02F2104289
:1021C000BDD1012070BD224B1B6803F007039D4267
:1021D0000CD21F4A136823F007032B4313601368C4
:1021E00003F007039D4201D0012070BD236813F066
:1021F000040F06D0174A536823F4E063E1680B43E9
:102200005360236813F0080F07D0124A536823F471
:102210006053216943EAC1035360FFF719FF0D4B77
:102220005B6803F0F003F02292FAA2F2B2FA82F2B3
:10223000D340094AD35CD840084B1860084B186853
:10224000FFF77CFB002070BD01207047012070BDAE
:1022500000200240001002405029000870000020B9
:102260006C000020014B1868704700BF7000002010
:1022700008B5FFF7F7FF074B5B6803F4E0634FF423
:10228000E06292FAA2F2B2FA82F2D340024AD35C3E
:10229000D84008BD001002406029000808B5FFF7CB
:1022A000E1FF074B5B6803F460534FF4605292FA0E
:1022B000A2F2B2FA82F2D340024AD35CD84008BDFF
:1022C0000010024060290008F0B583B0044603689E
:1022D00013F4803F48D0A14BDB6913F0805F40F0DE
:1022E00022819E4BDA6942F08052DA61DB6903F0A9
:1022F00080530193019B0125994B1B6813F4807F48
:1023000000F01381954B1B6A13F4407322D062686E
:1023100002F4407293421DD09048016A21F4407645
:102320004FF4803393FAA3F2B2FA82F28D4F3A441B
:1023300092004FF0010EC2F800E093FAA3F3B3FA53
:1023400083F33B449B0000221A60066211F0010FE8
:1023500040F00081814A136A23F4407361680B43A3
:102360001362002D40F02881236813F0010F06D07E
:102370007A4A136B23F00303A1680B4313632368AA
:1023800013F0020F06D0754A136B23F44033E16853
:102390000B431363236813F0040F06D06F4A136BCB
:1023A00023F4402321690B431363236813F0200FA8
:1023B00006D06A4A136B23F01003E1690B431363E1
:1023C000236813F4003F06D0644A536823F4800363
:1023D000616D0B435360236813F0400F06D05F4AD2
:1023E000136B23F02003216A0B431363236813F458
:1023F000802F06D0594A136B23F04003616A0B43C8
:102400001363236813F0080F06D0544A136B23F4A8
:10241000401361690B431363236813F0100F06D058
:102420004E4A136B23F44003A1690B4313632368E3
:1024300013F4007F06D0494A536823F40003216B4C
:102440000B435360236813F0800F06D0434AD36ACE
:1024500023F4F873A16A0B43D362236813F4807FDB
:1024600006D03E4AD36A23F47853E16A0B43D36221
:10247000236813F4805F06D0384A136B23F480730B
:10248000616B0B431363236813F4005F06D0334A78
:10249000136B23F40073216C0B431363236813F451
:1024A000801F06D02D4A136B23F08073A16B0B4362
:1024B0001363236813F4001F06D0284A136B23F01C
:1024C0000073E16B0B431363236813F4800F06D092
:1024D000224A136B23F48063616C0B4313632368FC
:1024E00013F4000F06D01D4A136B23F40063A16C94
:1024F0000B431363236813F0807F06D0174A136BD6
:1025000023F40053E16C0B431363236813F0007F43
:1025100059D0124A136B23F40043216D0B4313630C
:10252000002003B0F0BD0025E6E60D4A136843F431
:1025300080731360FFF746FA0646094B1B6813F4D5
:10254000807F7FF4DFAEFFF73DFA801B6428F4D96B
:102550000320E6E7FFF736FA06461BE000100240CC
:102560000070004000819010184B196A022393FA02
:10257000A3F3B3FA83F303F01F03012202FA03F378
:1025800019427FF4E7AEFFF71DFA801B41F2883352
:10259000984216D8022393FAA3F293FAA3F3B3FA5C
:1025A00083F35B0943F00203022BDDD0022393FA8D
:1025B000A3F3064B596AD9E7D36923F08053D3615B
:1025C000D2E60320ADE70020ABE700BF00100240D9
:1025D000F0B583B0002393E04FEAD30E0EF1080E5E
:1025E00050F82E4003F00706B6000F27B74024EA44
:1025F00007040F6907FA06F6344340F82E408EE0D0
:1026000086682640CF6807FA0EF73E438660466824
:1026100026EA05054E68C6F300169E403543456020
:10262000C5682C408D6805FA0EF52C43C4604C68D3
:1026300014F0805F63D04F4CA56945F00105A5619A
:10264000A46904F001040194019C9C08A61C4A4D55
:1026500055F8265003F00306B7000F26BE4025EAC2
:102660000605B0F1904F77D0444EB04276D006F5D3
:102670008066B04274D006F58066B04272D006F52E
:102680008066B04270D006F58066B0426ED006F526
:102690008066B0425ED00726BE4035430234364ED7
:1026A00046F82450364C2568D44305EA04064F68A2
:1026B00017F4803F01D042EA0506314D2E606D6867
:1026C00004EA05064F6817F4003F01D042EA050608
:1026D0002B4D6E60AD6804EA05064F6817F4801F45
:1026E00001D042EA0506264DAE60ED682C404E68EA
:1026F00016F4001F01D042EA0504214AD4600133D8
:102700000A6832FA03F433D001259D402A40F6D0FE
:102710004C68022C3FF460AF122C3FF45DAF0668AA
:102720004FEA430E032404FA0EF4E44326404F68B4
:1027300007F0030707FA0EF73E4306604E68771E60
:10274000012F7FF65DAF112E3FF45AAF122E7FF4AA
:1027500067AF55E706269FE700269DE701269BE722
:10276000022699E7032697E7042695E7052693E7CF
:1027700003B0F0BD0010024000000140000400481A
:10278000000401400AB9816270478161704700000E
:10279000074AD36823F4E0631B041B0C000200F417
:1027A000E060184340F0BF6040F40030D0607047F4
:1027B00000ED00E030B4164BDB68C3F30223C3F135
:1027C0000704042C28BF04241D1D062D17D9033B24
:1027D000012505FA04F4013C2140994005FA03F370
:1027E000013B1340194300280BDB0901C9B200F17A
:1027F000604000F5614080F8001330BC7047002352
:10280000E6E700F00F000901C9B2024B1954F4E7E2
:1028100000ED00E014ED00E00138B0F1807F0AD255
:10282000064B5860F021064A82F823100020986079
:1028300007221A6070470120704700BF10E000E0D7
:1028400000ED00E0054BD3F8882042F47002C3F895
:1028500088204FF000629A60704700BF00ED00E0F2
:10286000DFF834D0002103E00C4B5B5843500431B7
:102870000B480C4B42189A42F6D30B4A02E0002355
:1028800042F8043B094B9A42F9D3FFF7DBFFFDF70F
:10289000E9FCFEF758FDFEE700000120782900085A
:1028A000000000207400002074000020D8010020E7
:1028B000FEE70000F8B500BFF8BC08BC9E467047B4
:0C28C000F8B500BFF8BC08BC9E4670478D
:1028CC0004000020000000000000000000000000D8
:1028DC0000000000000000000000000000000000EC
:1028EC0000000000000000000000000000000000DC
:1028FC0000000000000000000000000000000000CC
:10290C0000000000000000000000000000000000BB
:10291C0000000000000000000000000000000000AB
:10292C000000000002030405060708090A0B0C0D41
:10293C000E0F10100102030405060708090A0B0C00
:10294C000D0E0F1000000000000000000102030437
:10295C000607080900000000010203044300000000
:04296C003A74740045
:042970002D0200082C
:042974000502000850
:10297800040000200000000010290008F0280008CA
:10298800D02800080000000000000000000000003F
:102998000000000068290008000000000000000096
:1029A800000000000000000000000000000000001F
:1029B800000000000000000000000000000000000F
:1029C80000000000000000000000000000000000FF
:1029D80000000000ADDEFECA01000000100000008B
:0429E80000127A005F
:040000050800286166
:00000001FF
